{
  "_format": "hh-sol-artifact-1",
  "contractName": "HitpotBridge",
  "sourceName": "contracts/HitpotBridge.sol",
  "abi": [
    {
      "inputs": [
        {
          "internalType": "address",
          "name": "_potTokenAddress",
          "type": "address"
        }
      ],
      "stateMutability": "nonpayable",
      "type": "constructor"
    },
    {
      "anonymous": false,
      "inputs": [
        {
          "indexed": false,
          "internalType": "address",
          "name": "account",
          "type": "address"
        },
        {
          "indexed": false,
          "internalType": "uint256",
          "name": "amount",
          "type": "uint256"
        }
      ],
      "name": "DepositEvent",
      "type": "event"
    },
    {
      "anonymous": false,
      "inputs": [
        {
          "indexed": true,
          "internalType": "address",
          "name": "previousOwner",
          "type": "address"
        },
        {
          "indexed": true,
          "internalType": "address",
          "name": "newOwner",
          "type": "address"
        }
      ],
      "name": "OwnershipTransferred",
      "type": "event"
    },
    {
      "anonymous": false,
      "inputs": [
        {
          "indexed": false,
          "internalType": "address",
          "name": "account",
          "type": "address"
        },
        {
          "indexed": false,
          "internalType": "uint256",
          "name": "amount",
          "type": "uint256"
        },
        {
          "indexed": false,
          "internalType": "uint64",
          "name": "userTransactionId",
          "type": "uint64"
        }
      ],
      "name": "WithdrawEvent",
      "type": "event"
    },
    {
      "inputs": [
        {
          "internalType": "uint256",
          "name": "amount",
          "type": "uint256"
        }
      ],
      "name": "deposit",
      "outputs": [],
      "stateMutability": "nonpayable",
      "type": "function"
    },
    {
      "inputs": [
        {
          "internalType": "uint256",
          "name": "amount",
          "type": "uint256"
        }
      ],
      "name": "exchange",
      "outputs": [],
      "stateMutability": "payable",
      "type": "function"
    },
    {
      "inputs": [],
      "name": "owner",
      "outputs": [
        {
          "internalType": "address",
          "name": "",
          "type": "address"
        }
      ],
      "stateMutability": "view",
      "type": "function"
    },
    {
      "inputs": [],
      "name": "proveBlocks",
      "outputs": [],
      "stateMutability": "nonpayable",
      "type": "function"
    },
    {
      "inputs": [],
      "name": "renounceOwnership",
      "outputs": [],
      "stateMutability": "nonpayable",
      "type": "function"
    },
    {
      "inputs": [
        {
          "internalType": "address",
          "name": "newOwner",
          "type": "address"
        }
      ],
      "name": "transferOwnership",
      "outputs": [],
      "stateMutability": "nonpayable",
      "type": "function"
    },
    {
      "inputs": [
        {
          "internalType": "address",
          "name": "account",
          "type": "address"
        },
        {
          "internalType": "uint256",
          "name": "amount",
          "type": "uint256"
        },
        {
          "internalType": "uint64",
          "name": "userTransactionId",
          "type": "uint64"
        }
      ],
      "name": "withdraw",
      "outputs": [],
      "stateMutability": "nonpayable",
      "type": "function"
    }
  ],
  "bytecode": "0x6080604052655af3107a4000600255600060035560006005553480156200002557600080fd5b50604051620012323803806200123283398181016040528101906200004b9190620001e9565b6200006b6200005f620000b360201b60201c565b620000bb60201b60201c565b80600160006101000a81548173ffffffffffffffffffffffffffffffffffffffff021916908373ffffffffffffffffffffffffffffffffffffffff160217905550506200021b565b600033905090565b60008060009054906101000a900473ffffffffffffffffffffffffffffffffffffffff169050816000806101000a81548173ffffffffffffffffffffffffffffffffffffffff021916908373ffffffffffffffffffffffffffffffffffffffff1602179055508173ffffffffffffffffffffffffffffffffffffffff168173ffffffffffffffffffffffffffffffffffffffff167f8be0079c531659141344cd1fd0a4f28419497f9722a3daafe3b4186f6b6457e060405160405180910390a35050565b600080fd5b600073ffffffffffffffffffffffffffffffffffffffff82169050919050565b6000620001b18262000184565b9050919050565b620001c381620001a4565b8114620001cf57600080fd5b50565b600081519050620001e381620001b8565b92915050565b6000602082840312156200020257620002016200017f565b5b60006200021284828501620001d2565b91505092915050565b611007806200022b6000396000f3fe6080604052600436106100705760003560e01c80638da5cb5b1161004e5780638da5cb5b146100d1578063b6b55f25146100fc578063ec57de5714610125578063f2fde38b1461013c57610070565b80635355655914610075578063715018a6146100915780638693a290146100a8575b600080fd5b61008f600480360381019061008a919061090f565b610165565b005b34801561009d57600080fd5b506100a6610168565b005b3480156100b457600080fd5b506100cf60048036038101906100ca91906109da565b61017c565b005b3480156100dd57600080fd5b506100e6610338565b6040516100f39190610a3c565b60405180910390f35b34801561010857600080fd5b50610123600480360381019061011e919061090f565b610361565b005b34801561013157600080fd5b5061013a6106d1565b005b34801561014857600080fd5b50610163600480360381019061015e9190610a57565b6106db565b005b50565b61017061075e565b61017a60006107dc565b565b61018461075e565b600160009054906101000a900473ffffffffffffffffffffffffffffffffffffffff1673ffffffffffffffffffffffffffffffffffffffff1663095ea7b384846040518363ffffffff1660e01b81526004016101e1929190610a93565b6020604051808303816000875af1158015610200573d6000803e3d6000fd5b505050506040513d601f19601f820116820180604052508101906102249190610af4565b610263576040517f08c379a000000000000000000000000000000000000000000000000000000000815260040161025a90610b7e565b60405180910390fd5b6102b582600460008673ffffffffffffffffffffffffffffffffffffffff1673ffffffffffffffffffffffffffffffffffffffff168152602001908152602001600020546108a090919063ffffffff16565b600460008573ffffffffffffffffffffffffffffffffffffffff1673ffffffffffffffffffffffffffffffffffffffff168152602001908152602001600020819055507fb319deede689b77f0dde2cc6c96633b528a871b599a673511686770abeb625b783838360405161032b93929190610bad565b60405180910390a1505050565b60008060009054906101000a900473ffffffffffffffffffffffffffffffffffffffff16905090565b80600160009054906101000a900473ffffffffffffffffffffffffffffffffffffffff1673ffffffffffffffffffffffffffffffffffffffff166370a08231336040518263ffffffff1660e01b81526004016103bd9190610a3c565b602060405180830381865afa1580156103da573d6000803e3d6000fd5b505050506040513d601f19601f820116820180604052508101906103fe9190610bf9565b101561043f576040517f08c379a000000000000000000000000000000000000000000000000000000000815260040161043690610c98565b60405180910390fd5b80600160009054906101000a900473ffffffffffffffffffffffffffffffffffffffff1673ffffffffffffffffffffffffffffffffffffffff1663dd62ed3e33306040518363ffffffff1660e01b815260040161049d929190610cb8565b602060405180830381865afa1580156104ba573d6000803e3d6000fd5b505050506040513d601f19601f820116820180604052508101906104de9190610bf9565b101561051f576040517f08c379a000000000000000000000000000000000000000000000000000000000815260040161051690610d79565b60405180910390fd5b600160009054906101000a900473ffffffffffffffffffffffffffffffffffffffff1673ffffffffffffffffffffffffffffffffffffffff166323b872dd3330846040518463ffffffff1660e01b815260040161057e93929190610d99565b6020604051808303816000875af115801561059d573d6000803e3d6000fd5b505050506040513d601f19601f820116820180604052508101906105c19190610af4565b610600576040517f08c379a00000000000000000000000000000000000000000000000000000000081526004016105f790610e1c565b60405180910390fd5b61065281600460003373ffffffffffffffffffffffffffffffffffffffff1673ffffffffffffffffffffffffffffffffffffffff168152602001908152602001600020546108b690919063ffffffff16565b600460003373ffffffffffffffffffffffffffffffffffffffff1673ffffffffffffffffffffffffffffffffffffffff168152602001908152602001600020819055507f2d8a08b6430a894aea608bcaa6013d5d3e263bc49110605e4d4ba76930ae5c2933826040516106c6929190610a93565b60405180910390a150565b6106d961075e565b565b6106e361075e565b600073ffffffffffffffffffffffffffffffffffffffff168173ffffffffffffffffffffffffffffffffffffffff1603610752576040517f08c379a000000000000000000000000000000000000000000000000000000000815260040161074990610eae565b60405180910390fd5b61075b816107dc565b50565b6107666108cc565b73ffffffffffffffffffffffffffffffffffffffff16610784610338565b73ffffffffffffffffffffffffffffffffffffffff16146107da576040517f08c379a00000000000000000000000000000000000000000000000000000000081526004016107d190610f1a565b60405180910390fd5b565b60008060009054906101000a900473ffffffffffffffffffffffffffffffffffffffff169050816000806101000a81548173ffffffffffffffffffffffffffffffffffffffff021916908373ffffffffffffffffffffffffffffffffffffffff1602179055508173ffffffffffffffffffffffffffffffffffffffff168173ffffffffffffffffffffffffffffffffffffffff167f8be0079c531659141344cd1fd0a4f28419497f9722a3daafe3b4186f6b6457e060405160405180910390a35050565b600081836108ae9190610f69565b905092915050565b600081836108c49190610f9d565b905092915050565b600033905090565b600080fd5b6000819050919050565b6108ec816108d9565b81146108f757600080fd5b50565b600081359050610909816108e3565b92915050565b600060208284031215610925576109246108d4565b5b6000610933848285016108fa565b91505092915050565b600073ffffffffffffffffffffffffffffffffffffffff82169050919050565b60006109678261093c565b9050919050565b6109778161095c565b811461098257600080fd5b50565b6000813590506109948161096e565b92915050565b600067ffffffffffffffff82169050919050565b6109b78161099a565b81146109c257600080fd5b50565b6000813590506109d4816109ae565b92915050565b6000806000606084860312156109f3576109f26108d4565b5b6000610a0186828701610985565b9350506020610a12868287016108fa565b9250506040610a23868287016109c5565b9150509250925092565b610a368161095c565b82525050565b6000602082019050610a516000830184610a2d565b92915050565b600060208284031215610a6d57610a6c6108d4565b5b6000610a7b84828501610985565b91505092915050565b610a8d816108d9565b82525050565b6000604082019050610aa86000830185610a2d565b610ab56020830184610a84565b9392505050565b60008115159050919050565b610ad181610abc565b8114610adc57600080fd5b50565b600081519050610aee81610ac8565b92915050565b600060208284031215610b0a57610b096108d4565b5b6000610b1884828501610adf565b91505092915050565b600082825260208201905092915050565b7f746865207472616e73666572206661696c656400000000000000000000000000600082015250565b6000610b68601383610b21565b9150610b7382610b32565b602082019050919050565b60006020820190508181036000830152610b9781610b5b565b9050919050565b610ba78161099a565b82525050565b6000606082019050610bc26000830186610a2d565b610bcf6020830185610a84565b610bdc6040830184610b9e565b949350505050565b600081519050610bf3816108e3565b92915050565b600060208284031215610c0f57610c0e6108d4565b5b6000610c1d84828501610be4565b91505092915050565b7f596f757220746f6b656e20616d6f756e74206d7573742062652067726561746560008201527f72207468656e20796f752061726520747279696e6720746f206465706f736974602082015250565b6000610c82604083610b21565b9150610c8d82610c26565b604082019050919050565b60006020820190508181036000830152610cb181610c75565b9050919050565b6000604082019050610ccd6000830185610a2d565b610cda6020830184610a2d565b9392505050565b7f596f75722061727070726f766520746f6b656e20616d6f756e74206d7573742060008201527f62652067726561746572207468656e20796f752061726520747279696e67207460208201527f6f206465706f7369740000000000000000000000000000000000000000000000604082015250565b6000610d63604983610b21565b9150610d6e82610ce1565b606082019050919050565b60006020820190508181036000830152610d9281610d56565b9050919050565b6000606082019050610dae6000830186610a2d565b610dbb6020830185610a2d565b610dc86040830184610a84565b949350505050565b7f6d6f7665206661696c75726520617070726f766520746f6b656e000000000000600082015250565b6000610e06601a83610b21565b9150610e1182610dd0565b602082019050919050565b60006020820190508181036000830152610e3581610df9565b9050919050565b7f4f776e61626c653a206e6577206f776e657220697320746865207a65726f206160008201527f6464726573730000000000000000000000000000000000000000000000000000602082015250565b6000610e98602683610b21565b9150610ea382610e3c565b604082019050919050565b60006020820190508181036000830152610ec781610e8b565b9050919050565b7f4f776e61626c653a2063616c6c6572206973206e6f7420746865206f776e6572600082015250565b6000610f04602083610b21565b9150610f0f82610ece565b602082019050919050565b60006020820190508181036000830152610f3381610ef7565b9050919050565b7f4e487b7100000000000000000000000000000000000000000000000000000000600052601160045260246000fd5b6000610f74826108d9565b9150610f7f836108d9565b9250828203905081811115610f9757610f96610f3a565b5b92915050565b6000610fa8826108d9565b9150610fb3836108d9565b9250828201905080821115610fcb57610fca610f3a565b5b9291505056fea2646970667358221220e776c888dac7e3e90ae876798fb3104083a1eb2162c1044cdf01dba159446b3964736f6c63430008110033",
  "linkReferences": {},
  "deployedLinkReferences": {}
}